:020000040800F2
:100000000000022005BF0008ADAD0008B1AD00083A
:10001000B5AD0008B9AD0008BDAD00080000000096
:10002000000000000000000000000000117D00083A
:10003000C1AD000800000000A17D0008297A000879
:1000400055BF000855BF000855BF000855BF000840
:10005000C5AD000855BF000855BF000855BF0008D2
:1000600055BF0008C9AD0008D1AD000855BF000854
:10007000D9AD0008E5AD000855BF000855BF000820
:1000800055BF000855BF000855BF000855BF000800
:10009000F1AD0008FDAD000855BF000809AE00082D
:1000A00055BF000855BF000855BF000855BF0008E0
:1000B00055BF000855BF000855BF000855BF0008D0
:1000C00055BF000811AE00081DAE000829AE00089B
:1000D00055BF000835AE000855BF000841AE000806
:1000E00055BF000855BF000855BF000855BF0008A0
:1000F00055BF00084DAE000855BF000869AE0008A6
:1001000055BF000855BF000855BF000855BF00087F
:1001100055BF000855BF000855BF000855BF00086F
:1001200075AE000855BF000881AE00088DAE00080E
:1001300099AE000855BF000855BF000855BF00081C
:10014000A5AE0008B1AE000855BF0008BDAE00085E
:10015000C9AE0008D5AE0008E1AE0008EDAE00085B
:10016000F9AE000805AF000855BF000855BF0008EC
:1001700055BF000855BF000855BF0008000000002B
:0801800055BF000855BF00083F
:1001900081F0004102E000BF83F0004330B54FEA38
:1001A00041044FEA430594EA050F08BF90EA020FA5
:1001B0001FBF54EA000C55EA020C7FEA645C7FEA38
:1001C000655C00F0E2804FEA5454D4EB5555B8BF5B
:1001D0006D420CDD2C4480EA020281EA030382EACC
:1001E000000083EA010180EA020281EA0303362D5E
:1001F00088BF30BD11F0004F4FEA01314FF4801C31
:100200004CEA113102D0404261EB410113F0004F42
:100210004FEA03334CEA133302D0524263EB4303F9
:1002200094EA050F00F0A780A4F10104D5F1200E97
:100230000DDB02FA0EFC22FA05F2801841F10001F2
:1002400003FA0EF2801843FA05F359410EE0A5F1C6
:1002500020050EF1200E012A03FA0EFC28BF4CF0F7
:10026000020C43FA05F3C01851EBE37101F00045AD
:1002700007D54FF0000EDCF1000C7EEB00006EEBBA
:100280000101B1F5801F1BD3B1F5001F0CD3490844
:100290005FEA30004FEA3C0C04F101044FEA44529B
:1002A00012F5800F80F09A80BCF1004F08BF5FEA22
:1002B000500C50F1000041EB045141EA050130BD02
:1002C0005FEA4C0C404141EB0101013C28BFB1F514
:1002D000801FE9D291F0000F04BF01460020B1FA5F
:1002E00081F308BF2033A3F10B03B3F120020CDA32
:1002F0000C3208DD02F1140CC2F10C0201FA0CF010
:1003000021FA02F10CE002F11402D8BFC2F1200C74
:1003100001FA02F120FA0CFCDCBF41EA0C0190402A
:10032000E41AA2BF01EB0451294330BD6FEA040473
:100330001F3C1CDA0C340EDC04F11404C4F120025E
:1003400020FA04F001FA02F340EA030021FA04F370
:1003500045EA030130BDC4F10C04C4F1200220FAC7
:1003600002F001FA04F340EA0300294630BD21FA05
:1003700004F0294630BD94F0000F83F4801306BFCB
:1003800081F480110134013D4EE77FEA645C18BFBF
:100390007FEA655C29D094EA050F08BF90EA020F56
:1003A00005D054EA000C04BF1946104630BD91EA4E
:1003B000030F1EBF0021002030BD5FEA545C05D151
:1003C0004000494128BF41F0004130BD14F5800490
:1003D0003CBF01F5801130BD01F0004545F0FE4104
:1003E00041F470014FF0000030BD7FEA645C1ABF39
:1003F000194610467FEA655C1CBF0B46024650EA70
:10040000013406BF52EA033591EA030F41F400219B
:1004100030BD00BF90F0000F04BF0021704730B521
:100420004FF4806404F132044FF000054FF00001F6
:1004300050E700BF90F0000F04BF0021704730B5B7
:100440004FF4806404F1320410F0004548BF40428C
:100450004FF000013EE700BF42004FEAE2014FEAE1
:1004600031014FEA02701FBF12F07F4393F07F4FBC
:1004700081F06051704732F07F4208BF704793F0BF
:100480007F4F04BF41F40021704730B54FF46074D2
:1004900001F0004521F000411CE700BF50EA0102D5
:1004A00008BF704730B54FF000050AE050EA01027E
:1004B00008BF704730B511F0004502D5404261EBEE
:1004C00041014FF4806404F132045FEA915C3FF42F
:1004D000D8AE4FF003025FEADC0C18BF03325FEACC
:1004E000DC0C18BF033202EBDC02C2F1200300FA7D
:1004F00003FC20FA02F001FA03FE40EA0E0021FAA2
:1005000002F11444BDE600BF70B54FF0FF0C4CF48F
:10051000E06C1CEA11541DBF1CEA135594EA0C0F41
:1005200095EA0C0F00F0DEF82C4481EA030621EA7C
:100530004C5123EA4C5350EA013518BF52EA0335B7
:1005400041F4801143F4801338D0A0FB02CE4FF069
:100550000005E1FB02E506F00042E0FB03E54FF099
:100560000006E1FB03569CF0000F18BF4EF0010E91
:10057000A4F1FF04B6F5007F64F5407404D25FEA8D
:100580004E0E6D4146EB060642EAC62141EA555140
:100590004FEAC52040EA5E504FEACE2EB4F1FD0C82
:1005A00088BFBCF5E06F1ED8BEF1004F08BF5FEA00
:1005B000500E50F1000041EB045170BD06F00046B2
:1005C00046EA010140EA020081EA0301B4EB5C045F
:1005D000C2BFD4EB0C0541EA045170BD41F4801157
:1005E0004FF0000E013C00F3AB8014F1360FDEBF7C
:1005F000002001F0004170BDC4F10004203C35DA58
:100600000C341BDC04F11404C4F1200500FA05F3DA
:1006100020FA04F001FA05F240EA020001F000427B
:1006200021F0004110EBD37021FA04F642EB0601F1
:100630005EEA430E08BF20EAD37070BDC4F10C041B
:10064000C4F1200500FA04F320FA05F001FA04F2DF
:1006500040EA020001F0004110EBD37041F10001CB
:100660005EEA430E08BF20EAD37070BDC4F12005D6
:1006700000FA05F24EEA020E20FA04F301FA05F23E
:1006800043EA020321FA04F001F0004121FA04F2E6
:1006900020EA020000EBD3705EEA430E08BF20EAB6
:1006A000D37070BD94F0000F0FD101F000464000F0
:1006B00041EB010111F4801F08BF013CF7D041EA72
:1006C000060195F0000F18BF704703F00046520076
:1006D00043EB030313F4801F08BF013DF7D043EA47
:1006E0000603704794EA0C0F0CEA135518BF95EAFD
:1006F0000C0F0CD050EA410618BF52EA4306D1D184
:1007000081EA030101F000414FF0000070BD50EAA2
:10071000410606BF1046194652EA430619D094EA2C
:100720000C0F02D150EA013613D195EA0C0F05D116
:1007300052EA03361CBF104619460AD181EA03016A
:1007400001F0004141F0FE4141F470014FF0000022
:1007500070BD41F0FE4141F4780170BD70B54FF0BD
:10076000FF0C4CF4E06C1CEA11541DBF1CEA13553D
:1007700094EA0C0F95EA0C0F00F0A7F8A4EB05041F
:1007800081EA030E52EA03354FEA013100F0888016
:100790004FEA03334FF0805545EA131343EA1263DF
:1007A0004FEA022245EA111545EA10654FEA002694
:1007B0000EF000419D4208BF964244F1FD0404F54D
:1007C000407402D25B084FEA3202B61A65EB0305A9
:1007D0005B084FEA32024FF480104FF4002CB6EB66
:1007E000020E75EB030E22BFB61A754640EA0C00E6
:1007F0005B084FEA3202B6EB020E75EB030E22BF26
:10080000B61A754640EA5C005B084FEA3202B6EB66
:10081000020E75EB030E22BFB61A754640EA9C0025
:100820005B084FEA3202B6EB020E75EB030E22BFF5
:10083000B61A754640EADC0055EA060E18D04FEAB3
:10084000051545EA16754FEA06164FEAC30343EA53
:1008500052734FEAC2025FEA1C1CC0D111F4801F20
:100860000BD141EA00014FF000004FF0004CB6E719
:1008700011F4801F04BF01430020B4F1FD0C88BFB8
:10088000BCF5E06F3FF6AFAEB5EB030C04BFB6EBC3
:10089000020C5FEA500C50F1000041EB045170BDB6
:1008A0000EF0004E4EEA113114EB5C04C2BFD4EBE3
:1008B0000C0541EA045170BD41F480114FF0000E67
:1008C000013C90E645EA060E8DE60CEA135594EAE3
:1008D0000C0F08BF95EA0C0F3FF43BAF94EA0C0FE6
:1008E0000AD150EA01347FF434AF95EA0C0F7FF45B
:1008F00025AF104619462CE795EA0C0F06D152EAAF
:1009000003353FF4FDAE1046194622E750EA410692
:1009100018BF52EA43067FF4C5AE50EA41047FF4A3
:100920000DAF52EA43057FF4EBAE12E74FEA410206
:1009300012F5001215D211D56FF47873B3EB625231
:1009400012D94FEAC12343F0004343EA505311F058
:10095000004F23FA02F018BF404270474FF00000EA
:10096000704750EA013005D111F0004008BF6FF028
:10097000004070474FF00000704700BF4FEA41024F
:10098000B2F1E04324BFB3F5001CDCF1FE5C0DD9ED
:1009900001F0004C4FEAC0024CEA5070B2F1004F37
:1009A00040EB830008BF20F00100704711F0804F3A
:1009B00021D113F13872BCBF01F00040704741F4FF
:1009C00080114FEA5252C2F11802C2F1200C10FA03
:1009D0000CF320FA02F018BF40F001004FEAC123E7
:1009E0004FEAD32303FA0CFC40EA0C0023FA02F38B
:1009F0004FEA4303CCE77FEA625307D150EA013361
:100A00001EBF4FF0FE4040F44000704701F0004030
:100A100040F0FE4040F40000704700BF53B94AB9AF
:100A2000002908BF00281CBF4FF0FF314FF0FF30F6
:100A300000F0E2B8ADF1080C6DE904CE0FF09AFDBC
:100A4000DDF804E0DDE9022304B0704700F1340171
:100A500091E838009C46A6464CF8045D90E8FF0FEC
:100A6000E54600BD90EC210B704700BF80EC210BE8
:100A7000704700BF90EC200B704700BF80EC200B4C
:100A8000704700BFD0EC200B704700BFC0EC200BBC
:100A9000704700BFF0EC0201F0EC0211F0EC022113
:100AA000F0EC0231F0EC0241F0EC0251F0EC0261AA
:100AB000F0EC0271F0EC0281F0EC0291F0EC02A19A
:100AC000F0EC02B1F0EC02C1F0EC02D1F0EC02E18A
:100AD000F0EC02F1704700BFE0EC0201E0EC021123
:100AE000E0EC0221E0EC0231E0EC0241E0EC0251EA
:100AF000E0EC0261E0EC0271E0EC0281E0EC0291DA
:100B0000E0EC02A1E0EC02B1E0EC02C1E0EC02D1C9
:100B1000E0EC02E1E0EC02F1704700BFB0FC0181C3
:100B2000B0FC0191B0FC01A1B0FC01B1704700BF65
:100B3000A0FC0181A0FC0191A0FC01A1A0FC01B1DD
:100B4000704700BFEC4600B52DE900502DE9FF1FAE
:100B50004FF000032DE90C0001A90FF0BDFFDDF8F7
:100B600040E012B0704700BFEC4600B52DE90050E0
:100B70002DE9FF1F4FF000032DE90C0001A90FF034
:100B8000E7FFDDF840E012B0704700BFEC4600B56B
:100B90002DE900502DE9FF1F4FF000032DE90C0057
:100BA00001A90FF0F5FFDDF840E012B0704700BF7B
:100BB000EC4600B52DE900502DE9FF1F4FF0000372
:100BC0002DE90C0001AB0FF0BBFFDDF840E012B0E7
:100BD000704700BFEC4600B52DE900502DE9FF1F1E
:100BE0004FF000032DE90C0001AA10F027F8DDF802
:100BF00040E012B0704700BF704700BF10F8012BF3
:100C000011F8013B012A28BF9A42F7D0D01A704749
:100C1000034613F8012B002AFBD1181A013870473C
:100C200001F0FF01102A2BDB10F0070F08D010F89D
:100C3000013B013A8B422DD010F0070F42B3F6D1A1
:100C4000F0B441EA012141EA014122F007047FF0BA
:100C500000070023F0E80256083C85EA010586EA11
:100C6000010685FA47F5A3FA87F586FA47F6A5FA4D
:100C700087F68EB9EED1F0BC01F0FF0102F0070259
:100C800032B110F8013B013A83EA010313B1F8D104
:100C90000020704701387047002D06BF35460338E5
:100CA000073815F0010F07D1013015F4807F02BF1E
:100CB000013015F4C03F0130F0BC0138704700BF6F
:100CC0000348044B834202D0034B03B118477047DB
:100CD000B80D0020B80D0020000000000548064BAC
:100CE0001B1AD90F01EBA301491002D0034B03B12A
:100CF00018477047B80D0020B80D00200000000014
:100D000010B5064C237843B9FFF7DAFF044B13B153
:100D10000448AFF300800123237010BDB80D0020FC
:100D200000000000CC23010808B5054B1BB10549A4
:100D30000548AFF30080BDE80840FFF7CFBF00BF14
:100D400000000000BC0D0020CC23010808B50B4BAF
:100D50001A6842F400721A601A6842F480621A60DB
:100D60001A6842F480721A60032000F02BFD0F20F5
:100D700009F0C8FF09F09AFF002008BD003C0240BE
:100D8000034A044B11681B780B441360704700BF83
:100D9000D40D002004000020014B1868704700BFEC
:100DA000D40D002038B50446FFF7F6FF631C054656
:100DB00002D0044B1B781C44FFF7EEFF401BA042FF
:100DC000FAD338BD04000020002800F09E8038B51A
:100DD000056C04463DB1236CDB060CD5002384F87A
:100DE0003C30012038BD09F023F96564236C84F898
:100DF0003C50DB06F2D4236C474A23F4885323F09B
:100E0000020343F0020323645168236821F4403154
:100E1000516051686068014351605A682069A16857
:100E200022F480725A605A6842EA00225A605A6874
:100E3000E06822F040725A605A680A435A609A6821
:100E4000A16A22F400629A609A6802439A60334A67
:100E500091429A6851D022F07062E06A9A609A6872
:100E6000114399609A6822F040529A609A6802434E
:100E70009A609A6822F002029A609A68217E42EA99
:100E800041029A6094F82020002A40D05A68616A92
:100E900042F400625A605A6822F460425A605A680A
:100EA000013942EA41325A60DA6AE16922F4700299
:100EB000DA62DA6A013942EA0152DA629A686169F1
:100EC00022F400729A609A6894F8300042EA402254
:100ED0009A609A6822F480629A609A68002042EAD6
:100EE00081229A606064236C23F0030343F00103C2
:100EF0002364002384F83C3038BD22F070629A608D
:100F00009A6822F040529A60B3E7012070475A680D
:100F100022F400625A60C7E7002301400100000F7D
:100F200070B590F83C3082B00246012B4FF00000C3
:100F3000019000F09380012382F83C300D68136823
:100F40008C68092DA8B228D81E6905EB450E4FF014
:100F5000070C0CFA0EFC26EA0C061E611E6904FA48
:100F60000EF434431C614C68062C04EB84012AD82F
:100F70005C6B05394FF01F0C88400CFA01F124EA34
:100F800001015963596B0843586336498B422BD092
:100F9000002082F83C0002B070BD00EB400CDE681F
:100FA000ACF11E0C4FF0070E04FA0CF40EFA0CFC18
:100FB00026EA0C06DE60DE683443DC604C68062CF2
:100FC00004EB8401D4D90C2C34D81C6B23391F2694
:100FD000884006FA01F124EA01011963196B0843FC
:100FE000204918638B42D3D1122D30D0A5F11003C4
:100FF000012BCDD81C494B68102D43F400034B60E6
:10100000C6D11A4B01F146711B6801F52E3101F270
:101010008331A1FB03139B0C03EB83035B00019360
:10102000019B002BB4D0019B013B0193019B002B42
:10103000F9D1ADE7DC6A41391F26884006FA01F193
:1010400024EA0101D962D96A0843D8629DE7D1F840
:10105000043343F48003C1F8043399E7022002B05B
:1010600070BD00BF00200140002301409800002017
:1010700000287BD038B590F820300446002B72D081
:101080002268136843F001031360FFF785FE0546ED
:1010900004E0FFF781FE401B0A285BD823685A68EA
:1010A000D107F6D51A6822F002021A60FFF774FE23
:1010B000054604E0FFF770FE401B0A284AD8236863
:1010C0005A689207F6D4227E012A1A680CBF42F0B1
:1010D000800222F080021A60627E012A1A680CBF28
:1010E00042F0400222F040021A60A27E012A1A68F1
:1010F0000CBF42F0200222F020021A60E27E012A98
:101100001A680CBF22F0100242F010021A60227F0F
:10111000012A1A680CBF42F0080222F008021A6085
:10112000627F012A1A680CBF42F0040222F0040216
:101130001A60D4E90220216902430A4360696168A8
:10114000024301390A4300200121DA61606284F818
:10115000201038BD636A052243F40033636284F8CB
:101160002020012038BD08F0E1FF89E70120704709
:1011700090F82020013A012A06D9426A034642F437
:10118000802201205A627047404BD3F80022012090
:10119000024330B4C3F80022D3F8002222F47C5278
:1011A000C3F80022D3F800224C6A42EA0422C3F8B2
:1011B00000224A6902F01F04A040D3F81C4224EA2E
:1011C0000004C3F81C42CD69C443002D45D1D3F8B7
:1011D0000C522540C3F80C52D200CD688B8802F126
:1011E000804202F5C84243EA0543C2F840328D68A6
:1011F0000B8843EA0543C2F844328B69234A33BB68
:10120000D2F804322340C2F804320B69C3B91F4B31
:10121000D3F814221440C3F814420B6A012B05D1F1
:101220001A4AD2F81C320343C2F81C32174AD2F8C9
:10123000003223F00103002030BCC2F800327047B6
:10124000124AD2F814320343C2F81432E5E7D2F856
:1012500004320343C2F80432D7E7012DCDD1D3F8CD
:101260000C520543C3F80C52D2000D688B8802F172
:10127000804202F5C84243EA0543C2F840328D6815
:101280008B8943EA0543C2F84432B6E70064004064
:1012900038B590F82030012B044605D0436A43F45A
:1012A00000234362012038BD0268022380F8203009
:1012B000136823F001031360FFF76EFD054604E099
:1012C000FFF76AFD431B0A2B07D823685B6813F0FE
:1012D0000103F5D16362184638BD636A052243F401
:1012E0000033636284F82020DCE700BF30B490F85C
:1012F00020C005680CF1FF3CBCF1010FAC6834D88C
:1013000014F0E05F38D0C4F30164032C42D0012014
:10131000A04018608B68A3B3C8680343486843EAD9
:10132000C00304F1180000012B5005EB041C0B69ED
:10133000CCF884310B7D012B4FEA041105D1DCF888
:10134000843143F48073CCF884316B185168C3F84E
:101350008C111268C3F88821DCF8803143F0010356
:10136000002030BCCCF880317047436A43F48023BE
:101370004362012030BC7047436A43F40013436268
:10138000F7E7CB68086843EA405004F118031B01F3
:10139000E850CAE7436A43F400034362E9E700BF49
:1013A00090F82030013B012B01D9002070470368E1
:1013B00098689A689B681201C0F3806048BF01304A
:1013C000DB00F3D50130704790F820C00CF1FF3CF2
:1013D000BCF1010F65D870B5046841B9E568AE0786
:1013E00008D1436A43F400134362012070BD2569AC
:1013F000AD07F6D004EB011C4FEA011EDCF8B0513A
:1014000005F004059560002D51D0DCF8B051ED08D1
:101410005560DCF8B05105F00205D560DCF8B45138
:10142000DCF8B46105F00F0515617444DCF8B451C3
:10143000C6F3072696612D0CD4F8B86155611E706D
:1014400002687244D2F8B821120A5A7002687244D3
:10145000D2F8B821120C9A7002687244D2F8B821FE
:10146000120EDA7002687244D2F8BC211A71026856
:101470007244D2F8BC21120A5A7102687244D2F83E
:10148000BC21120C9A7102687244D2F8BC21120E6F
:10149000DA71026881B9D36843F02003D360002079
:1014A00070BD436A43F48023436201207047DCF837
:1014B000B0516D0D1560ACE7136943F02003136163
:1014C000EDE700BF90F82030013B012B01D900204F
:1014D0007047036819B9D86800F0030070471869AD
:1014E00000F00300704700BF90F82020013A012A65
:1014F000034605D9426A42F4802201205A627047AD
:10150000026853690B43002053617047704700BF66
:10151000704700BF704700BF704700BF704700BFF3
:10152000704700BF704700BF704700BF704700BFE3
:10153000704700BF704700BF2DE9F84F03685C6932
:10154000D3F804809F68D3F80CB0D3F810A0D3F878
:10155000189014F0010605461FD0F90700F1978096
:101560000026F9050BD52B684FF480729A60BA05F6
:1015700000F1F5807B0540F1E88046F40056F90360
:101580000BD52B684FF480329A60BA0300F1EB80E0
:101590007B0340F1DF8046F40046210702D51BF0B3
:1015A000100F6ED1620703D51BF0080F40F0978033
:1015B000A30703D52B68DB689F077AD1600602D5A5
:1015C0001AF0100F57D1A10602D51AF0080F69D1F1
:1015D000E20603D52B681B699B076ED1A70302D5D2
:1015E00018F0100F6DD1E00302D518F0080F6FD17D
:1015F00021043CD518F0040F2B6836D0E20504D541
:1016000019F0010F18BF46F00106A7056ED4610559
:1016100004F4006225D519F0040F22D046F0040628
:10162000002A71D019F070096ED0B9F1400F00F0A6
:10163000C0806CD8B9F1200F00F0A780B9F1300F4D
:1016400074D19A69042122F070029A6146F0200652
:1016500059606B6A334328466B62FFF76BFFBDE846
:10166000F88F12B119F07009DFD104225A60002EF0
:10167000EFD1BDE8F88F2B68102246F480661A611E
:10168000A1E72B68102246F40076DA608AE701228F
:101690009A60BA0735D47B0754D43E077ED54FF401
:1016A00080565EE72B6808221A612846FFF73CFF48
:1016B0008EE728460BF01AFC80E728460BF01AFC50
:1016C0008CE72B6810225A602846FFF72FFF8AE725
:1016D0002B6808225A602846FFF72AFF88E72B6804
:1016E0000822DA602846FFF71DFF61E719F0020FB4
:1016F0008DD0600546F0020604F400628BD41AB166
:1017000090E7FFF703FF2BE704225A60A1E7B9F146
:10171000500F2CD0B9F1600F32D19A69042122F018
:1017200070029A6146F48076596092E7B9F1100F21
:1017300026D19A69042122F070029A6146F00806C7
:10174000596086E74FF400660BE738052DD546F45F
:10175000804614E7380324D546F480361DE7284632
:10176000FFF7D6FE0BE72846FFF7D4FE15E79A6988
:10177000042122F070029A6146F08006596068E701
:101780009A6922F070029A616FE79A69042122F047
:1017900070029A6146F0100659605AE7FFF7BCFEE6
:1017A000DEE62846FFF7BCFEF7E62846FFF7B6FE62
:1017B000E5E69A69042122F070029A6146F040063B
:1017C000596046E70749CA6803024FF6FF0003F471
:1017D000E0630240134343F0BF6343F40033CB6044
:1017E000704700BF00ED00E01B4BDB68C3F3022332
:1017F00000B5C3F1070EBEF1040F03F1040C28BFBE
:101800004FF0040EBCF1060F1CD9A3F1030C4FF0EE
:10181000FF3303FA0CF322EA03024FF0FF3303FA1B
:101820000EF321EA030303FA0CF313431B01002810
:10183000DBB20ADB00F1604000F5614080F8003364
:101840005DF804FB00229446E7E7044A00F00F002D
:10185000024413765DF804FB00ED00E0FCEC00E0D0
:10186000002807DB4109044A00F01F0001238340E0
:1018700042F82130704700BF00E100E080B110B5B0
:101880004379044603F0FF021BB10123637100207A
:1018900010BD027108F0FAFC01236371002010BD35
:1018A0000120704788B110B50379044603F0FF02A8
:1018B0003BB10023022101222171236122711846CC
:1018C00010BD427108F024FDF3E70120704700BF0E
:1018D0000346407901281FD0022030B41871D1E9A5
:1018E00000011C6802F010022568014340F6FE70FA
:1018F000904025EA00009140014321602168C0200A
:1019000000FA02F2002521EA020201212260197187
:101910005D71284630BC70470220704738B50446D8
:10192000FFF73AFA002C75D023680022022184F8D0
:10193000351084F834201A6822F0010205461A6036
:1019400005E0FFF729FA431B052B39D823681A68ED
:10195000D107F6D4D4E90120E16802430A43D4E96F
:101960000451A0692A430A43E1691D6802430A43FE
:1019700032492940256A2A430A43616A042926D04C
:101980001A605A6922F007021143D8B22C4A5961F1
:101990001038A2FB005212092A4923F47F73895C94
:1019A000E16523F003035F2888BF04333F228A40A8
:1019B000A36500209A600123606584F8353038BD46
:1019C00003232022626584F83530184638BDD4E9F7
:1019D0000B512943114319605969A26A21F007018B
:1019E000114341F00401002DCFD028B9012A21D0A4
:1019F00032F00202C9D106E0B0F5005F0CD0022A35
:101A000003D9032AC1D1EA01BFD54022012362656F
:101A100084F83530012038BD032AB6D801A050F82B
:101A200022F000BF0B1A0008071A00080B1A000862
:101A3000351A0008B5F1C07FA7D1E6E73F8010F066
:101A4000ABAAAAAA0824010870B490F83440856DA6
:101A5000012C0AD090F835404FF0010C644580F815
:101A600034C005D0002380F83430022070BC7047A9
:101A7000022680F83560046800264665266826F44C
:101A80008026266063608368402B0EBFA260A16041
:101A9000E260C26D08BFE1603F239340AB60236802
:101AA000026C43F0160323601AB1236843F0080365
:101AB0002360236843F001030020236070BC70475B
:101AC00070B50446866DFFF767F994F83530022B40
:101AD00006D080236365002384F83430012070BD74
:101AE00023681A6822F016021A605A6922F08002EE
:101AF0005A61226C054642B31A6822F008021A6045
:101B00001A6822F001021A6005E0FFF745F9431B4D
:101B1000052B10D823681B6813F00103F5D1E16D84
:101B20003F228A40184601210023B26084F8351014
:101B300084F8343070BD032320226265184684F88F
:101B40003530002384F8343070BDA26C002AD3D124
:101B5000D6E700BF90F83530022B03D080234365D1
:101B6000012070470268052380F83530136823F0A0
:101B70000103002013607047F0B583B0674A876D9A
:101B8000166800230193C36D3D6808229A402A42DB
:101B9000044603D001680868400778D401229A40BF
:101BA0002A4203D02168496908066AD404229A406F
:101BB0002A4203D02168096889075CD410229A4020
:101BC0002A4203D021680868000741D420229A40A5
:101BD0002A4214D021680868C00610D5BA6094F86B
:101BE0003520052A63D00B6813F4802F0B687ED054
:101BF000190340F18980E36B0BB120469847636D70
:101C000023B3636DDA071AD522684549052384F8A2
:101C100035301368A1FB061623F00103B60A1360E2
:101C200002E01368DB0704D5019B0133B342019343
:101C3000F7D90122002384F8352084F83430E36C8E
:101C400023B1204603B0BDE8F040184703B0F0BD13
:101C5000BA600A6812F4802F0A6822D1D20503D430
:101C60000A6822F008020A60226C002AAED02046E0
:101C70009047E36DAAE7BA60626D42F004026265C4
:101C80009CE7BA60626D42F0020262658EE7086806
:101C900020F004000860BA60626D42F001026265E3
:101CA0007CE71103E0D5A26C002AE0D18EE70A6838
:101CB00022F016020A604A6922F080024A61226C10
:101CC0003AB30A6822F008020A603F2202FA03F3DC
:101CD000216DBB600122002384F8352084F8343064
:101CE0000029B3D0204603B0BDE8F040084713F404
:101CF000807380D10A6822F010020A60012284F801
:101D0000352084F8343076E7636C002B7FF475AFB0
:101D100075E7A26C002AD4D1D7E700BF9800002055
:101D2000B5814E1B90F83500704700BF1B4BDA6839
:101D3000D10605D51A49CA6910200243CA61D86084
:101D4000164BDA68920606D51549CA69202042F07A
:101D50000802CA61D860114BDA68500606D51049EE
:101D6000CA69402042F00402CA61D8600B4BDA68AD
:101D7000110606D50A49CA69802042F00202CA61EA
:101D8000D860064BDA68920706D50549CA69022071
:101D900042F02002CA61D860704700BF003C024098
:101DA000D80D0020704700BF704700BF38B52F4BDB
:101DB0002F4CDB6813F0F20F0ED02378012B3FD0AD
:101DC0002378022B0CBF25696569FFF7AFFF284612
:101DD000FFF7EAFF00232370244BDA68D2070CD503
:101DE0000122DA60237893421AD02378022B2CD078
:101DF0006069FFF7D7FF00232370237803F0FF010A
:101E00006BB91A4B1A6922F0FF021A611A6922F0A3
:101E100080721A611A6922F000721A61217638BD47
:101E20006368013B63606368ABB1E068FFF7BAFFCA
:101E3000E3680133E360E068217A00F01BF8DCE737
:101E40004FF0FF33E568E360BFE700F031F8206949
:101E5000FFF7A8FFCFE74FF0FF35E560237000F0F4
:101E600027F82846FFF79EFFC7E700BF003C024067
:101E7000D80D00200D4B1A6922F440721A611A69BC
:101E8000022994BF09024FF440710A431A611A698A
:101E900022F0F8021A611A6942EAC00040F002001A
:101EA00018611A6942F480321A617047003C02409E
:101EB000144B1A6891050FD51A6822F400721A6043
:101EC0001A6842F400621A601A6822F400621A600A
:101ED0001A6842F400721A600A4B1A6852050FD54C
:101EE0001A6822F480621A601A6842F480521A60FA
:101EF0001A6822F480521A601A6842F480621A60EA
:101F0000704700BF003C02402DE9F04F00230C68F1
:101F1000DFF818A285B04FF0010B894603E00133CA
:101F2000102B00F091800BFA03F202EA0408A2439E
:101F3000F5D1D9F8041001F003024FEA430C032550
:101F4000571E05FA0CF5012F6FEA05057FD9032A04
:101F500040F0B680076802FA0CF23D402A4311F4C3
:101F6000403F0260DBD000220392DAF8442042F4C2
:101F70008042CAF84420DAF8442002F480420392F6
:101F8000039A23F0030202F1804203F003070F26B5
:101F900002F59C32BF0006FA07FC614E9568B0421C
:101FA00025EA0C0527D006F58066B04200F0938044
:101FB0005C4EB04200F09580DFF874C1604500F0DF
:101FC0009680DFF870C1604500F09780DFF868C147
:101FD000604500F09880DFF864C1604500F09980AA
:101FE000DFF85CC160450CBF4FF0070C4FF0080CE8
:101FF0000CFA07F73D4395604B4A9268CE026FEAB0
:102000000805494E54BF2A4048EA0202B260F2680D
:10201000454E8F0254BF2A4048EA0202F2607268BD
:102020008E03414E54BF2A4048EA02027260326871
:10203000C90303F101033C4954BF2A4048EA0202A4
:10204000102B0A607FF46FAF05B0BDE8F08F876892
:1020500007EA050ED9F80C7007FA0CF747EA0E07E5
:102060008760476827EA080EC1F300179F4047EAD8
:102070000E074760C76807EA050ED9F8087007FA27
:102080000CF747EA0E07022AC7607FF463AFDF0848
:1020900000EB870701973E6AD9F81070009603F0AD
:1020A000070E4FEA8E0E0F2607FA0EF706FA0EFEFF
:1020B000009E26EA0E0E019E47EA0E07376249E7A8
:1020C000C76807EA050ED9F8087007FA0CF747EA5F
:1020D0000E07C7603EE74FF0010C0CFA07F73D43CF
:1020E00089E74FF0020C0CFA07F73D4383E74FF006
:1020F000030C0CFA07F73D437DE74FF0040C0CFA94
:1021000007F73D4377E74FF0050C0CFA07F73D431F
:1021100071E74FF0060C0CFA07F73D436BE700BF81
:102120000000024000080240003C0140003802402C
:10213000000C02400010024000140240001802404F
:10214000001C02400369194214BF0120002070479F
:1021500002B9090481617047044A5169014200D102
:10216000704708B550610BF013F808BD003C014002
:10217000002800F0B88070B590F83D30044603F0B8
:10218000FF02002B00F098802368242284F83D2071
:102190001A6822F001021A601A6842F400421A60BA
:1021A0001A6822F400421A6002F062F865684F4B28
:1021B0009D424FD84E4B98427CD94E4B6A00A3FBB0
:1021C0000035431EB3FBF2F32268516821F03F0152
:1021D00041EA95415160116A4FEA954C0CF1010CAE
:1021E00021F03F0141EA0C011162D16940F6FC7017
:1021F000013321F44F41034221F0FF0161D1042357
:102200000B43D361D4E907301168034321F0C001C7
:102210000B4313609168D4E9030321F403410343A2
:1022200021F0FF010B439360D4E90530D1680343EB
:1022300021F0FF010B43D3601168002341F001013D
:1022400020201160236484F83D00236384F83E302D
:10225000184670BD284B98422CD92268254B274E32
:10226000A3FB003C431E506820F03F0040EA9C4026
:1022700050604FEA9C414FF4967000FB01F1A6FBC1
:102280000161106A890920F03F00013101431162A8
:10229000D169A06821F44F4121F0FF01A0B905EBFD
:1022A0004505B3FBF5F30133C3F30B03CBB143F4A3
:1022B0000043A5E7012070BD80F83C2008F04EFAED
:1022C00062E7C3F30B039BE705EB850505EB85058B
:1022D000B3FBF5F30133C3F30B0313B143F44043F2
:1022E0008EE701238CE70120704700BFA086010024
:1022F0007F841E0083DE1B43FF083D00D34D621028
:10230000704700BF704700BF704700BF704700BFF5
:10231000704700BF704700BF90F83D20016D034635
:1023200059B9C26C0168012A826C0DD0C2F3072230
:102330000A61026D013202657047016D012909D001
:10234000016D02290ED07047D2B20A61026D0232CD
:1023500002657047826C0168D2B20A61026D013277
:1023600002657047D2B2222A1FD0418D89B2C1B90D
:10237000418D89B20029E6D1212AE4D1026810B545
:10238000546824F4E0645460146844F400741460E5
:102390002022016380F83D2080F83E10FFF7BAFF4D
:1023A00010BD212A0AD05B8D704701680A6842F48B
:1023B00080720A60026D013202657047416A0268EC
:1023C00011F8010B10615A8D5962013A92B25A8587
:1023D000704700BF704700BF704700BF70B53A4BF1
:1023E0003A4A1B68806B82B0DB080021A2FB032302
:1023F00001911B0A90F83D10026803EB8303C3EBC5
:10240000C303C9B2019305E0019B013B019313682B
:102410009B0506D5019B002BF6D1036C43F02003EE
:102420000364D0E90D4344B30025E563F3B11668B6
:10243000DD6326F4806616604585256500241C65ED
:10244000136823F00103136090F83D30602B29D00E
:1024500001F02801282918D02022002380F83D20EF
:1024600080F83E30FFF7B6FF02B070BD156825F466
:102470008065156043852365E2E7F3B11568DC6389
:1024800025F4806515604485D8E7136843F001039F
:1024900013601368002443F480631360046380F8BE
:1024A0003D10DFE70023202280F83D2080F83E30F9
:1024B0000364FFF791FF02B070BD146824F48064D8
:1024C00014604385BCE700BF9800002089B5F8146C
:1024D00010B590F83D2090F83E30102B0446D2B253
:1024E00039D0D9B2402936D002F0280128292368F2
:1024F0003CD05968080507D4602A05D02021002265
:1025000084F83D1084F83E20002222635A6812F4B9
:10251000006233D194F83D10602974D05A69500696
:1025200005D5626A1B691370636A013363622046D2
:10253000FFF750FF236C190704D02268536823F477
:10254000E063536094F83D30226C5207DBB201D552
:10255000282B2ED010BD222AC6D123681A6822F457
:1025600000621A605A681205C8D5CDE700222263BE
:1025700084F83D105A6812F40062CBD05A68606B40
:1025800022F400625A6090F83530012B1ED0294B9E
:102590000365FFF7DFFA0028CCD02268606B136870
:1025A000202123F00103136084F83D10036D984748
:1025B000C0E700232049E16220222363204684F8FB
:1025C0003D2084F83E30FFF7A3FE10BDA06B194BF1
:1025D0000365FFF7BFFA0028ACD023685A6951069B
:1025E00006D5626A1B691370626A236801326262EF
:1025F0001A68A06B22F0010220211A6084F83D10B5
:10260000036D984796E7202184F83D1022645A69AB
:10261000520606D5626A1B691370626A236801322A
:1026200062621A6822F0010220461A60FFF7D4FEA7
:1026300080E700BFDD2300080000FFFFF0B503685E
:102640005F68C56A90F83E2090F83D10102A044655
:102650008FB0C9B2D0B221D040281FD0226C002A3E
:1026600000F097805A69002012F0020559D0BD058C
:102670005AD5226C02B1986994F83D2002F02802E4
:10268000282A00F0308200220C9259690C919B6933
:102690000C930C9B84F83C200FB0F0BD9E695A69E6
:1026A00012F0010F1AD1B5F52A0FF5D0B5F12A4F66
:1026B000F2D0150770D5BD0540F18680626C616B64
:1026C000D2B21A61002900F0FB81CA6B002A00F027
:1026D000F7815A6842F400625A60DDE7BD0571D5A2
:1026E000E26AB2F52A0F00F0FB81E26AB2F12A4FEA
:1026F00004BF0822E26294F83E20402A00F0E981FB
:102700002269B2F5804F00F0CA81226D002A40F0A4
:10271000FE81626CD21102F0060242F0F0021A61F0
:10272000BAE7D60600F18A8001F0F701212902F00C
:10273000040000F0E080510640F113817A0540F179
:102740001081002840F0108194F83D10628D92B203
:10275000C9B2002AA0D0626A1B691370638D626AD5
:10276000013B9BB26385638D01329BB26262002B99
:1027700092D12A2990D1226853682225282123F456
:10278000806353602046256384F83D10FFF7BCFD4D
:1027900082E798695A6967E7950715D5BD0513D58E
:1027A00094F83E20E06A256B94F83D102229D2B2BD
:1027B00000F0BF8100220A925A690A929B690A932B
:1027C0000A9B69E71507E7D5760740F1D9805D6870
:1027D0002D053FF561AF160602F0040540F1F980C2
:1027E0007A0540F1F680002D40F0F68094F83D2007
:1027F000208D94F83E10E56AD2B2C9B2002840F0AC
:102800004682212A00F0548340297FF445AF222AD2
:102810007FF442AF628D92B2002A00F07E8294F87B
:102820003E20402A00F0E180626A12F8011B196123
:10283000638D6262013B9BB263852DE7B8057FF52E
:1028400073AF94F83D605A6822F4E0625A600D95C7
:102850005A690D921A6842F001021A600D9A1A68BC
:1028600022F480621A605A681105F6B200F1E6801F
:10287000638D9BB213B323685A6952070AD5626A03
:102880001B691370628D636A013A591C92B2236806
:10289000616262855A69570609D5626A1B691370BD
:1028A000638D626A013B01329BB262626385638D14
:1028B0009BB21BB1236C43F004032364236C002BF5
:1028C00040F0E7802A2E00F0728194F83D30282BEA
:1028D00000F07D81236B222B02D0222E7FF4DCAE10
:1028E000002320222363204684F83D2084F83E30D4
:1028F000FFF70AFDD0E6160627D57D0525D538BB9E
:1029000094F83D00628D92B2C0B2002A3FF4C4AE8A
:10291000626A12F8015B1D616262628D013A92B2D5
:102920006285628D92B2002A7FF4B6AE29287FF4C8
:10293000B3AE5A68282522F480625A60204621638B
:1029400084F83D50FFF7DEFCA6E600283FF4A4AE75
:10295000B8057FF5A1AE628D92B2002A3FF49CAE1D
:1029600062E700283FF498AEBE057FF595AE628D14
:1029700092B2002A3FF490AE626A1B69137020E0A5
:1029800059680D053FF588AE500602F0040132D4B7
:1029900000293FF481AEBE057FF57EAEE06A628D10
:1029A000616A92B2042A00F04081628D92B2032AD9
:1029B00000F07F81628D92B2022A00F0B3811B6920
:1029C0000B70638D626A013B01329BB26262638568
:1029D00062E6002D3FF460AEBE057FF55DAE2129B5
:1029E00000F02A8140287FF457AE20460FB0BDE8A2
:1029F000F040FFF791BC7A05CAD50029CBD194F8F5
:102A00003D20222A7FF448AE628D92B2032A40F222
:102A10001682626A1B691370638D626A013B9BB206
:102A20006385638D9BB20132032B62627FF434AE07
:102A30002268536823F4806353602DE606F0F702A2
:102A4000222A00F09380606B0268526892B262851D
:102A5000628D92B21AB1226C42F0040222645A686A
:102A600022F400625A60FFF75DF9012808D0606B1C
:102A7000974B0365FFF76EF810B1606B036D9847D5
:102A8000638D9BB2002B7FF4F6AE236C002B3FF4DA
:102A90001CAF20460FB0BDE8F040FFF719BD94F819
:102AA0003D20212A626C16BF42F0010202F0FE02B4
:102AB000D2B21A61626B1AB1D26B002A7FF409AEEE
:102AC000A26B002A3FF4E8ADD26B002A7FF401AE7E
:102AD000E2E5226D3ABB626C02F0FE021A61DBE5B0
:102AE0000122E26207E65A6822F480625A60070611
:102AF00080F004014FF0000354BFA289228B84F8B8
:102B00003C30C1F380012046FFF700FCC4E5226D94
:102B1000012A7FF4C1AD626CD21102F0060242F0CC
:102B2000F1021A61B8E5626C42F00102D2B21A6198
:102B3000B2E5216D11B9402A00F0A280226D22B9C0
:102B40002169B1F5404F00F0A680628D92B2002A53
:102B50004AD103925A6903929A690392039A1A68B6
:102B600042F400721A600023236595E5A06B0268A9
:102B7000526892B26285628D92B21AB1226C42F0B2
:102B8000040222645A6822F400625A60FFF7CAF80D
:102B900001283FF46DAEA06B4D4B0365FEF7DAFFE5
:102BA00000283FF465AEA06B036D984760E62822CD
:102BB0002363204684F83D20FFF7A6FB94F83D30C0
:102BC000282B04D0236B222B7FF466AD88E60023EC
:102BD0004049E16220222363204684F83D2084F8A6
:102BE0003E30FFF795FB57E5628D92B2012A73D014
:102BF000628D92B2022A00F0D9801A6842F4806293
:102C00001A605A68120508D5202800F2FB800728B0
:102C100000F2ED80012800F0F080002209925A694C
:102C200009929B690993099B9DE75A6822F4806287
:102C30005A601B690B70C4E6E16A94F83D20212AB2
:102C40007FF42AAD628D92B2002A7FF4EDAD08299F
:102C500000F0DD80202900F0DA8011F5803F00F0DF
:102C6000D680596821F4E061596011202023206347
:102C700084F83E20204684F83D30FFF741FB0BE509
:102C800001915A6901929B690193019B04E5212AF4
:102C90007FF4BAADBEE502925A6902929A69029235
:102CA000029A1A6842F480721A60236D0133236518
:102CB000F2E45A68042822F480625A603FF47FAE3E
:102CC00002283FF47CAE1A6822F480621A6076E62D
:102CD000DD2300080000FFFF10F5803F00F0298190
:102CE000082800F0FD80202800F0FA80122D00F066
:102CF0005081102800F24F819C4A0241D20700F116
:102D00004A811A6842F480621A60002206925A6967
:102D100006929B690693069B25E75A6822F4806217
:102D20005A60B9E401380F2809D8DFE800F03A35D5
:102D3000083508080808080808080808083A1A6842
:102D400042F400721A601B690B70638D626A21681D
:102D5000013B9BB263850B69511C61625370638DAB
:102D60002168626A013B9BB263854B68013223F4A0
:102D70004073202062624B6084F83D0094F83E303E
:102D8000402B00F0EA800022122384F83E202046E7
:102D900023630AF01BFA7FE41A6842F480621A6027
:102DA000D1E71A6822F480621A60CCE7102804D8B0
:102DB0006F4AC240D70700F1A3801A6822F48062EC
:102DC0001A601A6842F400621A605A68160506D53D
:102DD000202840F29D8010F5803F00F09E80002268
:102DE00008925A6908929B690893089BBBE6614A5E
:102DF0000838C240D7077FF510AF5A6842F48052B6
:102E00005A600AE710F5803F7FF407AFF5E759688D
:102E100021F4E061596019680022202041F400711A
:102E20001960226384F83D0094F83E3084F83E2017
:102E3000402B20467FF421AFFFF76CFA2CE4E06AC8
:102E400002283FF46AAF012A3FF667AF4A4A0B9166
:102E5000126846F2A810B2FBF0F202EB82020B926B
:102E600004E01A6812F4007200F09A800B9A013A9A
:102E70000B920B990029F4D1226C606A42F0200277
:102E800022645A6822F4E0625A601B690370638D01
:102E9000626A013B01329BB220206385626284F842
:102EA0003D00204684F83E10FFF794FAFFF7F4BB8C
:102EB000082DACD0202DAAD015F5803FA7D05A6898
:102EC00022F4E0625A60112000212023206384F85C
:102ED0003E10204684F83D30FFF712FAFFF7DCBBC6
:102EE0001A68002122F480621A6007915A690792D9
:102EF0009A690792079A1A6842F400721A6032E6D9
:102F00001A6842F480621A605A6815057FF567AF47
:102F1000072807D801287FF462AF5A6842F480522C
:102F20005A605CE7134A0838C240D1077FF557AFB3
:102F3000F3E71A6822F480621A605A6812F4006299
:102F40001CD01A68002122F480621A6004915A6928
:102F500004929B690493049B05E6002384F83E30A9
:102F6000204623630AF05EF9FFF796BBEBFFFEFFF6
:102F700014000100010100019800002005925A6927
:102F800005929A690592059A1A6842F400721A60CD
:102F9000E9E50128A4D11A6822F480621A60B4E637
:102FA0001968606A21F480611960596821F4E06150
:102FB00059601B690370638D013B20219BB26385BF
:102FC00084F83D10636A94F83E100133402963622F
:102FD0007FF4DAAE84F83E20204622630AF022F91C
:102FE000FFF75ABBF0B503685C695A6890F83E1069
:102FF000E50583B0C9B210D512F4807614D06FF411
:103000008072A7055A615FD503256FF400725A617B
:10301000620512D422054AD44EE0A50506D512F465
:1030200080763ED00225F0E7A5053AD414F48065F9
:1030300039D012F4807634D00025428D90F83DC00E
:10304000076B202992B25FFA8CFC10D06FF480627B
:10305000102945F004055A6101D040293ED11A6873
:10306000270542F400721A6026D506BB24E082BB15
:103070000CF0F702212A04D0BCF1280F29D1212F0E
:1030800027D190F83D20C16A0829D2B22FD020293B
:103090002DD0212A46D06FF480625A61270522D4B0
:1030A00055B903B0F0BD2105FBD5D605F9D56FF4B0
:1030B000006245F008055A61036C2B43036403B0BA
:1030C000BDE8F040FFF704BA67054FF00105B4D43E
:1030D000A0E76FF4806245F004055A612405EBD542
:1030E000002EE4D1E8E7002EDAD00368DFE7282AD3
:1030F000CFD1194AC2625A68019022F4E0625A6044
:103100006FF480625A611A6822F480621A600023A8
:103110002022036380F83D2080F83E30FFF7F8F866
:103120000198BBE70C49C1620263202280F83D2070
:10313000002280F83E205A68019022F4E0625A6032
:103140006FF480625A611A6822F480621A60FFF795
:10315000D9F80198A2E700BF0000FFFFF0B58BB0DF
:1031600060B390F8BD340468054603F0FF02002BFD
:1031700076D02046032385F8BD34E36B2E4613F446
:10318000807308BF2B6103F041F856F810EBB4468A
:10319000BCE80F006C460FC4BCE80F000FC49CE8ED
:1031A000030084E803002F1D97E80E00704602F02C
:1031B00067FF044630B1022385F8BD340124204660
:1031C0000BB0F0BD0146286803F028F8686858B3D2
:1031D00022464FF0010E214602EBC20305EB8303AA
:1031E00002F1010C83F83C20A3F844205FFA8CF232
:1031F0008242C3E9121183F83DE083F8401059651B
:10320000EAD3002204EBC40305EB8303611C83F8BB
:103210007C42CCB28442C3E9A22283F87D2283F8A7
:103220008022C3F89422EDD30FCE6C460FC40FCE8C
:103230000FC496E8030084E8030097E80E002868AE
:1032400003F076F804460028B5D1012385F838004C
:10325000286885F8BD3403F081FC20460BB0F0BD32
:1032600080F8BC2408F062FC286883E710B590F869
:10327000BC34012B0446006816D0A36A0122934295
:1032800084F8BC2408D002F0B9FF206803F056FC93
:10329000002084F8BC0410BDA3699342F3D0836B73
:1032A00043F480338363EEE7022010BD2DE9F04F35
:1032B000076889B00446384603F08EFC10B109B0A7
:1032C000BDE8F08F0546206803F058FC0028F6D0D2
:1032D000D7F808382068C3F30D23C4F8FC3403F092
:1032E0004DFC10F0020F206807F5006303931EBF2A
:1032F000436903F00203436103F040FC10F0100F38
:10330000206812D0836923F0100383613E6AC6F3FC
:103310004343022B06F00F0800F0BC82062B00F09E
:103320006482836943F01003836103F027FC10F487
:10333000002F206840F0F88103F020FC460300F1E4
:103340005181206803F01AFC0028C0F2C280206876
:1033500003F014FC03057ED4206803F00FFCC004C6
:1033600000F1E180206803F009FC10F4005F2068A0
:1033700040F0C28003F002FC010700F12A812068BE
:1033800003F0FCFB02061DD5BA69636822F08002D7
:10339000012BBA6116D92646012502E00135AB4260
:1033A00010D996F8A322012A06F12406F6D105EBDE
:1033B000C50104EB8101206801F51F7103F0D0FA0B
:1033C0006368EBE7206803F0D9FBC30241D563686B
:1033D000012B20D907F512682646012504E00135A6
:1033E000AB4206F1240616D996F86420D8F80010EE
:1033F000012A08F12008F2D10029F0DA242305F08F
:103400000F0103FB0141206886F863203C3103F083
:10341000A7FA6368E3E72068436903F48013436114
:1034200003F0ACFB860221D4206803F0A7FB400028
:1034300000F1C680206803F0A1FB41077FF53FAF94
:1034400023685D686A0700F146825A682A435A6019
:1034500035E72068E4E7039B9B68DE0700F13782CD
:103460002068436903F40063436176E76668012ED0
:1034700029D907F532622346012103E0B14203F165
:10348000240320D093F8A4021568012801F101015A
:1034900002F12002F2D1002D05F4803CEEDAD4F8DE
:1034A000FC5405F00105AC45E8D183F8A302B869E6
:1034B00040F08000B86178690506DFD4039A53684C
:1034C00043F4007353602068436903F400134361BD
:1034D000ABE7039A536823F00103536094F8F43484
:1034E000012B00F07B81204608F0C4FB2068436973
:1034F00003F0004343612BE703F072FB206802F006
:10350000E7FFE060256800F0ADFE227B014628461B
:1035100002F0FAFD204608F07FFB2068436903F4BF
:103520000053436126E7039A2068536823F00103A0
:103530005360102102F0AAFE6068D8B107F510634D
:103540004FF67F3199601A6822F400121A60C3F8AE
:103550000812D3F8002222F40012C3F80022D3F894
:103560000022013542F000628542C3F8002203F1D7
:103570002003E7D10399226BCB6943F00113CB61A0
:10358000002A40F01F81039A536943F4005343F02B
:103590002B035361136943F00B031361D7F8003811
:1035A000217C206823F4FE63C7F8003804F2C4428B
:1035B00003F028FB2068436903F480534361D2E69B
:1035C000204608F063FB2068436903F080434361B1
:1035D00031E7204608F01CFB2068436903F008032C
:1035E0004361CDE6206803F0D5FA81462068B9F141
:1035F000000F3FF4A7AECDE9047507F51066A046AD
:103600004FF0000A074609E05FEA59090AF1010A8A
:1036100008F1240806F1200600F0FA8019F0010FE5
:10362000F2D05FFA8AFB3846594603F0C5FAC20762
:10363000054612D503980121436B0AF00F0201FAE7
:1036400002F223EA02034363B1602169012900F019
:1036500047815946204608F0D1FA2B0744BF08237A
:10366000B360EF0644BF1023B360680644BF402335
:10367000B360A90700F103812A062768C4D5D8F8EA
:103680005C30D8F85450AB42BED807F51061D8F87A
:103690004800079701EB4A11A5EB030C84458A69A2
:1036A00028BF84461FFA82FE0CF1030CBEEB9C0F70
:1036B000C0F04D81CDF818A08A4621E0D8F84830F6
:1036C000D8F84C109D4228BF1D46237C00935A46D3
:1036D000ABB2384603F08EF9D8F84C30DAF818203F
:1036E0002B44C8F84C30D8F85C3092B22B440335E8
:1036F000B2EB950FC8F85C30C0F02481D8F8545074
:10370000AB42A5EB0305D9D3DDF818A02768079BCA
:103710000AF00F0503F500610122D3F83438AA40FE
:1037200023EA02034B636FE703F02CFA0646206896
:10373000002E3FF401AE049507F53068A3464FF024
:10374000000A254607E076080AF1010A08F1200878
:103750000BF1240B60D0F407F5D55FFA8AF421460B
:1037600003F020FA10F0010F814669D119F0080F1B
:1037700055D119F0100F1CBF1022C8F8082019F0FD
:10378000020F0FD07A69110604D5039B5A6842F4E0
:1037900080625A609BF87F22012A00F0DC800223BD
:1037A000C8F8083019F0200F1CBF2023C8F80830D3
:1037B00019F4005F18BF4FF40053286818BFC8F809
:1037C0000830C0E7039AD2F8843043F00B03C2F804
:1037D0008430536C43F00B035364DFE6002184F81C
:1037E000F414204600F088FA80E6082204F2C4416E
:1037F000384608EBC80803F013F904EB8802C6F357
:103800000A13D2F89C1220680B44C2F89C3288E557
:103810003846059D049F95E52C46049D8CE5296856
:103820000822C8F80820086C01F530626D4902EBE7
:103830004A128842936866D8284608F0CFF998E77C
:10384000286829690122C8F8082000F5306202EBD7
:103850004A120129D0F840E0936866D062498E454B
:1038600000F08180BAF1000F04D1D5F89422002A2B
:1038700000F0AB802146284608F0B6F976E70498B8
:10388000514602F003FD98F83F30012B72D002231D
:10389000B360F1E647F6F0731E423FF442AD08EB29
:1038A000C80804EB8808C6F30A12D8F88C12384608
:1038B000164603F0B5F8D8F88C3220683344C8F8BF
:1038C0008C32D8F89C323344C8F89C3229E5204623
:1038D00008F0B8F9C4E5204608F0DCF92368B4E53F
:1038E000D8E912231344C8F84C30BAF1000F7FF422
:1038F000B0AE636D002B7FF4ACAE206804F2C4421E
:1039000003F080F9A5E6180444BF4FF4004191602C
:10391000284608F063F9296901297FF42AAF28684D
:1039200005F2C44203F06EF923E719072AD52D49A1
:103930008E457FF61BAF18047FF518AF4FF400419A
:10394000916013E7DDF818A0D8F8545027689D421D
:103950003FF65AAEDBE6002221468BF87F2228464E
:1039600008F08CF91BE71904E8D49B0682D52021C6
:1039700091607FE7002388F83F305946204608F0E1
:1039800081F984E7990602D520219160EEE613F0D3
:10399000280F7FF4EBAE13498E4501D91B04CDD41B
:1039A0001169DBF89822C1F31201521ACBF89C225C
:1039B000BAF1000F7FF45EAFD5F8941259B1D5F883
:1039C0008C121144C5F88C1254E705F2C4425146DA
:1039D00003F018F94EE705F2C442012103F012F991
:1039E00048E700BF0A30544F0A31544F90F8BC24C6
:1039F000012A0DD010B504460122006884F8BC24C9
:103A000084F8381003F08AF8002084F8BC0410BD54
:103A10000220704710B501F00F0E0EEBCE0C090618
:103A200004464FEA8C0C24D40CF51F7101440EEBB4
:103A3000CE0004EB80004FF0000C80F87DC2CA601D
:103A40004A7881F800E00B710AB1A1F808E0022B76
:103A500004BF00234B7194F8BC34012B15D0012313
:103A6000206884F8BC3402F03FFD002084F8BC04D8
:103A700010BD0CF13C0101440EEBCE0004EB8000C4
:103A80004FF0010C80F83DC0D9E7022010BD00BF07
:103A900001F00F0301F00F0210B503EBC30304465E
:103AA000090602EBC2004FEA830304EB800015D441
:103AB00003F51F73E1184FF0000C80F87DC20A7007
:103AC00094F8BC34012B14D00123206884F8BC3452
:103AD00002F052FD002084F8BC0410BD3C33E11814
:103AE0004FF0010C80F83DC00A7094F8BC34012BF3
:103AF000EAD1022010BD00BF10B501F00F0404EBA5
:103B0000C40C00EB8C0C2421CCF894320023CCF8AC
:103B10008C228CF87C42CCF89C328CF87D32036984
:103B200001FB0401012B08BFCCF89022006801F5CD
:103B30001F71DAB21CB902F093FE002010BD02F032
:103B40007DFD002010BD00BF01F00F0101EBC101A0
:103B500000EB8100D0F89C02704700BF10B501F067
:103B60000F0404EBC40C00EB8C0C2421CCF8543073
:103B70000023CCF85C300123CCF84C208CF83C407E
:103B80008CF83D30036901FB0401012B08BFCCF820
:103B9000502000683C31DAB21CB902F061FE00200E
:103BA00010BD02F04BFD002010BD00BF38B54368CA
:103BB00001F00F059D4233D80B0604461CD401EBDF
:103BC000C103242202FB010100EB830301F51F71F5
:103BD000002283F87D2201238B700D7094F8BC24A1
:103BE0009A421BD0206884F8BC3402F03DFFCDB16E
:103BF000002084F8BC0438BD05EBC503242101FB7B
:103C0000050100EB830301223C3183F83D200123B1
:103C10008B700D7094F8BC249A42E3D1022038BD19
:103C2000012038BD217C206804F2C44202F0EAFF82
:103C3000DEE700BF38B5436801F00F029A422FD883
:103C4000044602EBC20302EBC20009064FEA8303FB
:103C500004EB800016D403F51F73E118002580F8EB
:103C60007D5200258D700A7094F8BC34012B15D05C
:103C70000123206884F8BC3402F024FF84F8BC548B
:103C8000284638BD3C33E118012580F83D50002519
:103C90008D700A7094F8BC34012BE9D1022038BD34
:103CA000012038BD10B404681204636A29B91A43AC
:103CB000A26200205DF8044B7047A06A013903EB53
:103CC000104C0AD0002303F1400004EB80000133C4
:103CD00040688B420CEB104CF5D1403104EB810471
:103CE00042EA0C02626000205DF8044B704700BF9E
:103CF0000368002059627047704700BF002800F039
:103D0000D8812DE9F0410368DD0782B004462FD544
:103D10009D498A6802F00C02042A00F0EC808A684F
:103D200002F00C02082A00F0E2806368B3F5803FDD
:103D300000F0EB80B3F5A02F00F07381924D2A685C
:103D400022F480322A602A6822F480222A60002B22
:103D500040F0E080FDF720F8064605E0FDF71CF88E
:103D6000801B642800F200812B689F03F6D423682F
:103D70009D0728D5844A916811F00C0F00F09B80B4
:103D8000916801F00C01082900F09180E368002B94
:103D900000F00C817D4B7C4E01221A60FCF7FCFF89
:103DA000054605E0FCF7F8FF401B022800F2DC8026
:103DB00033689F07F6D53368226923F0F80343EA96
:103DC000C203336023681A075CD45D073AD56E4A94
:103DD000136C13F0805340F088800193136C43F010
:103DE00080531364136C03F080530193019B0125EE
:103DF000674E3368D80540F1A780A368012B00F017
:103E0000B780052B00F01D815F4E326F22F001025A
:103E10003267326F22F004023267002B40F0AD802F
:103E2000FCF7BAFF41F28838074605E0FCF7B4FF1B
:103E3000C01B404500F29880336F9B07F6D4002DDD
:103E400040F0F980A369CBB14F4DAA6802F00C0293
:103E5000082A00F0BC80022B4C4B4FF000021A667F
:103E600000F0F980FCF798FF044604E0FCF794FFAB
:103E7000001B022878D82B689B01F7D4002002B0E1
:103E8000BDE8F0816369FBB1404B3F4E0122C3F8AE
:103E9000802EFCF781FF054604E0FCF77DFF401B08
:103EA000022861D8736F9B07F7D523688DE75268A6
:103EB00051023FF56BAF344A1268920738D5E26879
:103EC000012A35D00120DAE7304A2F4EC2F8803E71
:103ED000FCF762FF054604E0FCF75EFF401B02288A
:103EE00042D8736F9F07F7D4DFE7002580E74A6861
:103EF00051027FF51AAF244A126892037FF538AF5A
:103F00006268002A7FF434AFDCE71F4A136843F489
:103F100080331360FCF740FF1B4E054604E0FCF7BE
:103F20003BFF401B64281FD833689B03F7D51EE76F
:103F3000154920690A6822F0F80242EAC0020A60C4
:103F40001A077FF542AF9DE7336843F4807333600F
:103F5000FCF722FF07463368D9053FF54EAFFCF763
:103F60001BFFC01B0228F6D9032002B0BDE8F08178
:103F7000054A136F43F001031367FCF70DFF024F6F
:103F8000064641F288380AE0003802400000474205
:103F900000700040FCF700FF801B4045E4D83B6FF9
:103FA0009A07F7D5002D3FF44DAF44E0424A434E07
:103FB0001360FCF7F1FE054604E0FCF7EDFE401B44
:103FC0000228D1D833689907F7D42368FBE6012B80
:103FD0003FF478AF6B68E26903F4800191427FF4AB
:103FE00071AF226A03F03F0191427FF46BAF616AC7
:103FF00047F6C0721A40B2EB811F7FF463AFA26A2A
:10400000520803F44031013AB1EB024F7FF45AAF4A
:10401000E26A03F07063B3EB026F14BF012000206B
:104020002DE7264B1A6842F480221A601A6842F47F
:1040300080321A606EE7214A136C23F080531364B8
:1040400000E71E4B1A6F42F004021A671A6F42F023
:1040500001021A6791E7FCF79FFE064605E0FCF7B0
:104060009BFE801B02283FF67FAF2B689901F6D498
:10407000D4E90731626A0B4343EA8213D4E90A2187
:10408000520843EA0163013A0B4943EA0243012221
:104090006B600A66FCF780FE084D044605E0FCF7FD
:1040A0007BFE001B02283FF65FAF2B689A01F6D516
:1040B000E4E60120704700BF00004742003802409C
:1040C000164908B58B6803F00C03042B1BD0082B92
:1040D00017D14A684B68496813F4800302F03F0225
:1040E00013D10F48C1F38811A1FB0001FCF796FC26
:1040F0000A4B5B68C3F3014301335B00B0FBF3F091
:1041000008BD074808BD074808BD0648C1F3881127
:104110000023A1FB0001FCF781FCE9E70038024025
:104120000024F400001BB700002800F08780484AF4
:10413000136803F007038B422DE9F0410D46044656
:1041400009D2CBB21370136803F007038B4202D07D
:104150000120BDE8F0812368980714D5590704D5DC
:104160003C498A6842F4E0528A601A0704D539490A
:104170008A6842F460428A603649A0688A6822F000
:10418000F00202438A60DF0721D56268012A57D016
:10419000931E012B2F4B1B684DD99907D8D52D4E57
:1041A000B36823F003031343B360FCF7F5FD41F25A
:1041B0008838074604E0FCF7EFFDC01B404544D8B3
:1041C000B368626803F00C03B3EB820FF3D1204AAB
:1041D000136803F00703AB4206D9EBB21370136800
:1041E00003F00703AB42B3D123685A0706D5194938
:1041F000E0688A6822F4E05202438A601B0707D510
:10420000144A2169936823F4604343EAC10393602D
:10421000FFF756FF0F4A104C92681049C2F3031281
:104220000346A25C0E48D34000680B6006F06AFDAE
:104230000020BDE8F0819801B1D489E701207047E2
:10424000044B1B689E03AAD482E7032081E700BFCA
:10425000003C0240003802408825010898000020F8
:1042600008000020014B1868704700BF980000202C
:10427000044B05499B68054A0868C3F38223D35C55
:10428000D84070470038024098000020802501087F
:10429000044B05499B68054A0868C3F34233D35C65
:1042A000D84070470038024098000020802501085F
:1042B0000E4B0F2202609A6802F0030242609A6875
:1042C00002F0F00282609A6802F4E052C2609B68D9
:1042D000DB0810B403F4E053054C036123685DF878
:1042E000044B03F007030B60704700BF0038024027
:1042F000003C0240F0B5036813F0050F83B004469C
:1043000004D198073BD4002003B0F0BD454B464E86
:1043100000229A66FCF740FD054604E0FCF73CFDF0
:10432000431B022B28D833681B01F7D4D4E90113AF
:104330001B0743EA81133B4AC6F884300123936686
:10434000FCF72AFD384E054604E0FCF725FD431B2B
:10435000022B11D833681F01F7D52368D1E7FCF78A
:104360001BFD41F2883706462B6F9B073CD4FCF7B8
:1043700013FD801BB842F7D9032003B0F0BD2A4BD0
:104380002A4D002201921A6C42F080521A641B6C72
:1043900003F080530193019B2B6843F480732B60DF
:1043A000FCF7FAFC064604E0FCF7F6FC831B022B44
:1043B000E2D82B68D905F7D51B4DE3682A6F12F4B4
:1043C000407203F4407112D08A4210D02B6F154A0C
:1043D0000121C2F8401E23F440730021C2F8401EA0
:1043E0002B672B6FDA07BAD4E36803F44071B1F599
:1043F000407F0BD00C498A6822F4F8128A600A4A7E
:10440000116FC3F30B030B4313677CE70648826805
:1044100023F0704121F4407122F4F8120A438260C3
:10442000EDE700BF00004742003802400070004046
:10443000B0B110B54379044603F0FF0263B12168BF
:10444000022363710B68012043F0040300220B6018
:1044500060711046A26010BD027106F00FFBEEE71E
:1044600001207047036870B5DC6814F0400402D086
:104470000024204670BDDA6842F08002DA6005460A
:10448000FCF78AFC06462B68DB685B06F1D4002C3F
:10449000EFD1FCF781FC831BB3F57A7FF3D90423BA
:1044A0006B770124EFE700BF38B50368DA6822F0C4
:1044B0008002DA609A68920601D5002038BDDA6879
:1044C00022F0A002DA600446FCF766FC0546236889
:1044D000DB689B06F1D4FCF75FFC431BB3F57A7FE6
:1044E000F5D904236377012038BD00BF002840D0F0
:1044F00038B5437F044603F0FF0273B123680220FE
:10450000CA2153226077596220465A62FFF7AAFFF8
:10451000236830B1FF225A6238BD027706F0E0FA14
:10452000ECE799686268256921F4E00121F0400117
:104530009960616998682A430A430243E1689A6076
:1045400019611A69A16842EA01421A612046FFF71F
:10455000ABFF23680028DDD11A6CA16922F4802208
:104560001A641A6C0A4301211A646177FF225A62A5
:1045700038BD0120704700BF2DE9F04182B01E46D2
:1045800014460D460746FCF707FC2644361AFCF78E
:1045900003FC264B1B68C3F3CB3306FB03F38046B7
:1045A00001933A6801E0631C07D1936835EA03037D
:1045B000F9D0002002B0BDE8F081FCF7EDFBA0EBE4
:1045C0000800B04208D2019B002B019B03F1FF338E
:1045D00008BF00260193E4E7D7E900315A68B1F536
:1045E000827F22F0E0025A6013D0BA6AB2F5005F0F
:1045F00007D11A6822F400521A601A6842F4005275
:104600001A600122002387F8512087F850300320D8
:10461000D0E7BA68B2F5004F02D0B2F5806FE4D1AE
:104620001A6822F040021A60DFE700BF98000020FD
:1046300038B513464268B2F5827F044606D00A4672
:104640000121FFF799FF78B9002038BD8268B2F5E3
:10465000004F1BD0B2F5806F0CD00A462046802157
:10466000FFF78AFF0028EFD0636D43F020036365F6
:10467000032038BD05680A46296821F040012960F9
:104680000121FFF779FF0028DED0EDE7006802681E
:1046900022F0400202600A4620468021FFF76CFFAC
:1046A0000028D1D0E0E700BF30B5164B164D1B688F
:1046B000A5FB035C83B04FEA5C5C4FF47A7303FBA9
:1046C0000CF301934368B3F5827F044607D10CE0F5
:1046D000019B2268013B019393681B0602D5019B55
:1046E000002BF5D1002003B030BD13460A468021CF
:1046F000FFF742FF0028F5D0636D43F0200303204D
:104700006365F0E798000020819F5E1600285CD06A
:1047100070B50446406A002847D0002323616361D6
:1047200094F851300022A26203F0FF01002B42D026
:1047300094462168A568A269266A022384F851304C
:104740000B6823F040030B60636805F4044503F431
:1047500082732B43E56805F400652B43256905F05A
:1047600002052B43656905F001052B43E56906F059
:10477000800E02F4007605F0380533432B43120C0B
:1047800000F0100043EA0E0302F0040243EA0C03B7
:1047900002430B604A60CB69002023F400630122CE
:1047A000CB61606584F8512070BD6368B3F5827F8A
:1047B000B6D0E061B4E7204684F8501006F0D8F98E
:1047C000D4E9090303F4005CB3E70120704700BF9C
:1047D0002DE9F043044690F8500083B001280A9E6A
:1047E00000F083801F46012384F8503089469046AC
:1047F000FCF7D2FA054694F8510063680128C1B26B
:1048000011D0B3F5827F09D002200122002384F861
:10481000512084F8503003B0BDE8F083A268002A2C
:10482000F2D10429F0D1B9F1000F6BD0B8F1000F2B
:1048300068D0002F66D094F85120C4F83880042A3C
:104840001CBF052284F85120002262652264626444
:104850002268E787E7861168A7874906C4F8309081
:10486000A78603D4116841F040011160E168B1F5F9
:10487000006F54D0002B47D0012F45D00127E38E85
:104880009BB21BB9E38F9BB2002B32D02268936896
:1048900099070FD5E38E9BB263B15FB1236B1B7891
:1048A0001373E38E226B013B01329BB222632268B9
:1048B000E3860027936813F001030DD0E18F89B2DE
:1048C00051B11F46A36BD2681A70A36B0133A36367
:1048D000E38F013B9BB2E387FCF75EFA401BB042DB
:1048E000CDD3731CCBD003208FE7022003B0BDE8EB
:1048F000F0832A4631462046FFF7D6FE00284CD0EA
:1049000020236365012080E799F800301373E38E5C
:10491000226B013B01329BB22263E386AEE7002BA0
:1049200047D1494631F8023BD360E38E2163013B16
:104930009BB2E3860127E38E9BB21BB9E38F9BB248
:10494000002BD6D0226893689B070DD5E38E9BB2CF
:1049500053B147B1236B33F8021BD1602363E38E5D
:10496000013B9BB2E3860027936813F001030CD050
:10497000E18F89B249B11F46A36BD26823F8022B9D
:10498000A363E38F013B9BB2E387FCF705FA401B6F
:10499000B042D0D3701CCED0A5E7A368002B7FF423
:1049A00034AF23680190DA6801929B680193019B00
:1049B0002BE7012FBED1B4E7844690F850000128C0
:1049C00058D010B501208CF850009CF85100DCF84C
:1049D000044001285FFA80FE0ED0B4F5827F04D037
:1049E000022000238CF8503010BDDCF808000028AD
:1049F000F6D1BEF1040FF3D1002936D0002A34D00D
:104A00009BB39CF85100CCF8301004281CBF052043
:104A10008CF851000020CCF85400DCF80C0016494A
:104A2000ACF8363000281548ACF83E3018BF0146C7
:104A3000CCF84410DCF80010114C4868ACF8343065
:104A4000ACF83C3040F0E0000E4BCCF8382008BF0A
:104A50002346CCF8403048600B685B0603D40B68F3
:104A600043F040030B600020BBE700238CF850307C
:104A7000012010BD02207047614C0008C94C00089D
:104A8000954C0008014D000838B5044690F85000D8
:104A900001286AD0012084F8500094F8510065681C
:104AA00001285FFA80FC0DD0B5F5827F04D002208A
:104AB000002384F8503038BDA0680028F7D1BCF13D
:104AC000040FF4D1002959D0002A57D0002B55D01B
:104AD00094F85100216304284FF000051CBF052005
:104AE00084F851006565E06CE386E38794F8511023
:104AF000A386A38725646564A2630565204DE38FC3
:104B00000429204918BF29461F4D01641F49C1646B
:104B10001F4918BF2946C16321689BB20C31FCF7BD
:104B200093FF014618BB2268A06C536843F0010351
:104B30005360E38EC1630164C16401659BB2216B64
:104B40000C32FCF781FF90B923681A68520603D42F
:104B50001A6842F040021A605A6842F020025A6015
:104B60005A6842F002025A60A2E7022038BD636D23
:104B7000012243F01003636584F85120012097E778
:104B8000A94B0008994B0008C94D0008394D000891
:104B90005D4D0008704700BF08B5806BFFF7FAFF56
:104BA00008BD00BF704700BF08B5806BFFF7FAFF74
:104BB00008BD00BF704700BF10B5274B274A1B68D0
:104BC000A2FB032382B0642204465B0A02FB03F3C8
:104BD0000093FCF7E1F821684B6823F020030246BC
:104BE0004B6005E0009B013B00938B689B0706D45C
:104BF000009B002BF6D1636D43F0200363656421B5
:104C00002046FFF751FD18B1636D43F02003636543
:104C1000A36833B922680193D36801939368019321
:104C2000019B636D83B994F85130042B4FF001035D
:104C300084F85130204603D008F020FC02B010BDAB
:104C400008F0EEFB02B010BD012384F8513020467D
:104C5000FFF7B0FF02B010BD98000020F1197605F3
:104C6000016B026809781173C28E016B013A92B22E
:104C7000C286C28E013192B201633AB901684A68B4
:104C800022F080024A60C38F9BB203B17047FFF7E6
:104C900093BF00BF0168826B097B1170C28F816B6B
:104CA000013A92B2C287C28F013192B281633AB99E
:104CB00001684A6822F060024A60C38E9BB203B169
:104CC0007047FFF779BF00BF016B10B4046831F87B
:104CD000022BE260C28E0163013A92B2C286C28E9A
:104CE00092B232B9626822F080026260C38F9BB2D6
:104CF00013B15DF8044B70475DF8044BFFF75CBFE0
:104D000010B40468816BE26821F8022BC28F8163C2
:104D1000013A92B2C287C28F92B232B9626822F06F
:104D200040026260C38E9BB213B15DF8044B7047C2
:104D30005DF8044BFFF740BF806B026808B553680D
:104D400023F003035360436D012143F010034365D7
:104D500080F85110FFF72EFF08BD00BF38B505469B
:104D6000846BFCF719F82B681B68DB0517D42368E4
:104D700059680246A06821F020015960B0B1596815
:104D800021F00101596064212046FFF751FC50B920
:104D900001230022E28784F85130636D7BB92046FD
:104DA00008F03EFB38BD20236365F1E76168B1F58B
:104DB000827FE4D1596821F003015960E3E720467E
:104DC000FFF7F8FE38BD00BF38B50546846BFBF72A
:104DD000E3FF2B681B68DB051BD402462068436891
:104DE00023F02003436064212046FFF75DFC18B1E7
:104DF000636D43F02003636521684B68002223F054
:104E0000030301204B60E286E28784F85100636D62
:104E10001BB9204608F032FB38BD2046FFF7CAFE1A
:104E200038BD00BF026810B55168936803F0410CAB
:104E3000BCF1010F84B004465AD0980701D508068A
:104E40005ED413F4B07F51D088064FD558060ED5E6
:104E500094F8510003285DD0606D40F00400606557
:104E600000200090D068009090680090009898060C
:104E70000CD5606D40F001006065002002909068E4
:104E80000290106820F0400010600298D80508D504
:104E9000636D002043F008036365039093680393F8
:104EA000039B636D13B3536823F0E0035360012049
:104EB0008B0784F8510029D05368E06C23F003037A
:104EC000536040B1174B0365FCF744FE18B1636DA6
:104ED00043F040036365A06C40B1124B0365FCF7DF
:104EE00039FE18B1636D43F04003636504B010BD33
:104EF00011F0400FA1D0036C04B0BDE8104018477A
:104F0000636C204604B0BDE8104018472046FFF708
:104F100051FEEBE700230193D3680193936801935B
:104F2000019BE3E7294F000808B5806B0023C38786
:104F3000C386FFF73FFE08BD036A23F00103036247
:104F4000036A70B4446882690D6822F073022A43D0
:104F50008D6823F002032B430E4DA8420AD005F5BD
:104F60008065A84206D049684460826170BC416394
:104F700003627047CD6823F008032B43D1E9056530
:104F800024F4407446EA050C23F004034CEA0404BC
:104F9000E9E700BF00000140036A23F48073036265
:104FA000036A70B44468C2690D6822F073022A4330
:104FB0008D6823F4007343EA05230F4DA8420AD0FD
:104FC00005F58065A84206D049684460C26170BC9E
:104FD000C16303627047CD6823F4006343EA05238D
:104FE000D1E9056524F4405446EA050C23F48063B6
:104FF00044EA0C14E8E700BF00000140036A23F410
:1050000080530362036A30B44468C2690D6822F4B5
:10501000E64242EA05228D6823F4005343EA053351
:10502000094DA8420AD005F58065A84206D0496816
:105030004460C26130BC0164036270474D6924F46E
:10504000804444EA8514F2E70000014090F83D30C6
:10505000012B2FD103681849022280F83D20DA681D
:105060008B4242F00102DA6019D0B3F1804F16D0C2
:10507000124A934213D002F5806293420FD002F598
:10508000806293420BD002F57842934207D002F53A
:105090007052934203D0A2F59432934204D19A689D
:1050A00002F00702062A03D01A6842F001021A60D1
:1050B00000207047012070470000014000040040BC
:1050C000704700BF002939D190F83E30012B3DD107
:1050D000022380F83E30036801F01F01186A0122A4
:1050E0008A4020EA02001862186A264902438B426D
:1050F0001A622DD0244A93422AD0B3F1804F12D0A5
:10510000224A93420FD002F5806293420BD002F5FF
:105110008062934207D002F59A32934203D0A2F5FF
:105120009432934204D19A6802F00702062A03D00F
:105130001A6842F001021A6000207047042910D05A
:10514000082916D090F84130012B06D00120704775
:105150005A6C42F400425A64E5E7022380F8413079
:10516000B9E790F83F30012BF0D1022380F83F30AF
:10517000B1E790F84030012BE8D1022380F84030AD
:10518000A9E700BF00000140000401400004004006
:10519000704700BFFFF796BF90F83C30012B71D0ED
:1051A000024630B40223046882F83D30012082F8C0
:1051B0003C00A36823F47F4323F07703A3600B68CC
:1051C000602B61D024D8402B77D04AD9502B17D1EF
:1051D0004B68C868216A21F00A011943236A23F049
:1051E00001032362A36923F0F00343EA0013A361E0
:1051F0002162A36823F0700343F05703A3600020EB
:105200000121002382F83D1082F83C3030BC704709
:10521000B3F5805FF3D0B3F5005F10D1D1E901534E
:10522000A0682B43CD6820F47F4143EA05230B435C
:10523000A360A36843F48043A3600020E0E7702BE1
:10524000DED1D1E90153A0682B43CD6820F47F4122
:1052500043EA05230B43A360A36843F07703A360ED
:10526000CDE7202B02D009D9302BC9D1A16821F07C
:1052700070010B4343F00703A360C0E733F0100154
:10528000BED1F3E702207047236A4868CD6823F057
:1052900010032362A169236A21F4704123F0A00363
:1052A00043EA001341EA0531A1612362A36823F0B8
:1052B000700343F06703A360A1E74B68C868216AE5
:1052C00021F00A011943236A23F001032362A36931
:1052D00023F0F00343EA0013A3612162A36823F0E3
:1052E000700343F04703A36089E700BF704700BF26
:1052F000704700BF704700BF03681A69910710B577
:10530000044602D5DA6892075FD41A69500702D5BD
:10531000DA68510746D41A69120702D5DA6810070D
:105320002ED41A69D20602D5DA68D00618D41A69C2
:10533000D10702D5DA68D2075DD41A69100602D502
:10534000DA6811065FD41A69520602D5DA68500687
:1053500061D41A69910602D5DA68920643D410BD69
:105360006FF01001082219612277DB6913F4407F86
:10537000204664D0FFF7BCFF002223682277D6E7DF
:105380006FF00801042219612277DB699907204632
:1053900052D1FFF7ABFF204607F048FF00222368F9
:1053A0002277BEE76FF004010222196122779B6920
:1053B00013F4407F20463CD1FFF798FF204607F0CA
:1053C00035FF002223682277A5E76FF00201012252
:1053D000196102779B699B0725D0FFF789FF00229F
:1053E0002368227791E76FF0200220461A61BDE81A
:1053F000104000F04DBA6FF001021A61204605F02E
:1054000021FB236899E76FF080021A61204600F0C3
:1054100041FA236897E76FF040021A612046FFF7D0
:1054200069FF236895E7FFF761FF204607F0FEFE5E
:10543000D5E7FFF75DFFC4E7FFF75AFFAEE7FFF7D9
:1054400055FF204607F0F2FE96E700BF354A036895
:10545000904210B44DD0B0F1804F34D0A2F57C42D0
:10546000904230D002F5806290422CD002F58062EA
:10547000904228D002F5784290423AD002F570521C
:10548000904224D0284A904221D002F58062904276
:105490001DD0A2F59832904219D002F58062904258
:1054A00015D002F58062904211D08C680A68496973
:1054B00023F080030B4303600123C46282625DF822
:1054C000044B436170474A6823F070031343CC6870
:1054D0004A6923F44073234323F0800313438C6809
:1054E0000A6803600123C46282625DF8044B436171
:1054F00070474C68CA6823F07003234323F4407359
:1055000013434A695DF8044B23F08003134303609F
:105510008B68C3620B6883620B6903630123436179
:10552000704700BF000001400044014050B310B577
:1055300090F83D30044603F0FF02F3B12146022308
:1055400084F83D3051F8040BFFF780FF012384F805
:10555000463084F83E3084F83F3084F8403084F898
:10556000413084F8423084F8433084F8443084F881
:10557000453084F83D30002010BD80F83C2005F017
:1055800003FDDBE70120704750B310B590F83D30C4
:10559000044603F0FF02F3B12146022384F83D30B4
:1055A00051F8040BFFF752FF012384F8463084F8CA
:1055B0003E3084F83F3084F8403084F8413084F83D
:1055C000423084F8433084F8443084F8453084F81D
:1055D0003D30002010BD80F83C20FFF771FDDBE777
:1055E0000120704750B310B590F83D30044603F0E9
:1055F000FF02F3B12146022384F83D3051F8040B39
:10560000FFF724FF012384F8463084F83E3084F805
:105610003F3084F8403084F8413084F8423084F8D8
:10562000433084F8443084F8453084F83D3000201D
:1056300010BD80F83C20FFF7ABFDDBE70120704791
:10564000036A23F010030362036A70B4446882693A
:105650000D6822F4E64242EA05228D6823F0200319
:1056600043EA05130E4DA8420AD005F58065A8420D
:1056700006D049684460826170BC816303627047F0
:10568000CD6823F0800343EA0513D1E9056524F4CE
:10569000406446EA050C23F0400344EA8C04E8E742
:1056A0000000014090F83C30012B25D010B5044695
:1056B0000C2A08D8DFE802F01407070718070707C5
:1056C0001C0707070C00002384F83C30012010BDA4
:1056D0000068FFF793FC002384F83C30002010BDE5
:1056E0000068FFF729FCF6E70068FFF7A9FFF2E77B
:1056F0000068FFF751FCEEE70220704738B590F8DC
:105700003C30012B57D0012304460D4680F83C3035
:105710000C2A08D8DFE802F01E0707072E07070744
:105720003F0707070C000120002384F83C3038BDF8
:105730000068FFF763FCC3692A6943F40063C3612F
:10574000C36923F48063C361C36943EA0223C3616D
:105750000020E9E70068FFF7EFFB83692A6943F05F
:1057600008038361836923F004038361836913431E
:105770008361EDE70068FFF763FF83692A6943F4FB
:1057800000638361836923F480638361836943EAEF
:1057900002238361DCE70068FFF7FEFBC3692A6927
:1057A00043F00803C361C36923F00403C361C36901
:1057B0001343C361CCE7022038BD00BF90F83C2002
:1057C000012A37D003460268022030B483F83D0036
:1057D00050680D68946820F07000284350601648A7
:1057E00082421AD0B2F1804F17D0A0F57C4082429D
:1057F00013D000F5806082420FD000F580608242B5
:105800000BD000F57840824207D000F570508242FC
:1058100003D0A0F59430824204D1496824F080047A
:105820000C4394600020012283F83D2083F83C0063
:1058300030BC7047022070470000014090F83C30B7
:10584000012B23D010B4D1E9024323F44073024664
:10585000234348680C6823F48063034323F4006304
:105860000869234323F4805303434869CC6923F434
:105870000053034323F4804310680021234343640F
:1058800082F83C1008465DF8044B704702207047D0
:10589000704700BF704700BF026802F10C0353E875
:1058A000003F23F4907302F10C0C4CE80031002906
:1058B000F3D102F1140353E8003F23F0010302F196
:1058C000140C4CE800310029F3D1036B012B05D0F7
:1058D0002022002380F83E200363704702F10C036E
:1058E00053E8003F23F0100302F10C0C4CE80031A8
:1058F0000029F3D1ECE700BF0268116938B504460E
:10590000C068A36821F44051014320691161034339
:105910006069D1680343E06921F4164121F00C016C
:1059200003430B43D3605369A069234923F44073B5
:1059300003438A42536105D0204B9A4202D0FEF7BE
:1059400097FC01E0FEF7A4FCE2691921B2F5004FD3
:10595000D4E90053A0FB010113D09A009B0FFBF781
:105960005DF8174AA2FB00135B09642101FB1300D9
:1059700000013230A2FB00201B0103EB5013AB608F
:1059800038BDDA184FF000035B41FBF747F80C4ACB
:10599000A2FB00314909642303FB1103DB0032330E
:1059A000A2FB0323C3F342121B0902EB011203F40F
:1059B000F8731344AB6038BD00100140001401407F
:1059C0001F85EB5160B338B590F83D30044603F0C5
:1059D000FF0203B32268242384F83D30D36823F404
:1059E00000532046D360FFF787FF23681A6922F42B
:1059F00090421A615A6922F02A025A61DA68002537
:105A0000202142F40052DA60256484F83D1084F8C5
:105A10003E10284638BD80F83C2005F095FED9E7B9
:105A200001207047704700BF704700BF704700BF3C
:105A300008B5806B0268516990F83D30212B0BD07E
:105A4000526990F83E30222B1ED0036C43F01003B5
:105A5000036407F04BFD08BD0906F1D50023C3849C
:105A600002F10C0353E8003F23F0C00302F10C0CD9
:105A70004CE800310029F3D1202380F83D305269F1
:105A800090F83E30222BE0D15306DED50023C385AB
:105A9000FFF702FFD9E700BF08B5806B0023C3857D
:105AA000C38407F023FD08BD806B08B5036B012B91
:105AB00002D0FFF7BBFF08BD818D490807F0E0FC6D
:105AC00008BD00BF08B50368806B1A6812F48072C5
:105AD0002BD10368C28503F10C0252E8002F22F497
